{
  "contractName": "ChristmasAid",
  "abi": [
    {
      "inputs": [],
      "stateMutability": "nonpayable",
      "type": "constructor"
    },
    {
      "inputs": [
        {
          "internalType": "address",
          "name": "",
          "type": "address"
        }
      ],
      "name": "donations",
      "outputs": [
        {
          "internalType": "uint256",
          "name": "",
          "type": "uint256"
        }
      ],
      "stateMutability": "view",
      "type": "function",
      "constant": true
    },
    {
      "inputs": [],
      "name": "owner",
      "outputs": [
        {
          "internalType": "address",
          "name": "",
          "type": "address"
        }
      ],
      "stateMutability": "view",
      "type": "function",
      "constant": true
    },
    {
      "inputs": [
        {
          "internalType": "uint256",
          "name": "",
          "type": "uint256"
        }
      ],
      "name": "recipients",
      "outputs": [
        {
          "internalType": "address",
          "name": "",
          "type": "address"
        }
      ],
      "stateMutability": "view",
      "type": "function",
      "constant": true
    },
    {
      "inputs": [],
      "name": "donate",
      "outputs": [],
      "stateMutability": "payable",
      "type": "function",
      "payable": true
    },
    {
      "inputs": [
        {
          "internalType": "address",
          "name": "recipient",
          "type": "address"
        }
      ],
      "name": "addRecipient",
      "outputs": [],
      "stateMutability": "nonpayable",
      "type": "function"
    },
    {
      "inputs": [],
      "name": "distributeFunds",
      "outputs": [],
      "stateMutability": "nonpayable",
      "type": "function"
    }
  ],
  "bytecode": "0x608060405234801561001057600080fd5b50336000806101000a81548173ffffffffffffffffffffffffffffffffffffffff021916908373ffffffffffffffffffffffffffffffffffffffff1602179055506108e3806100606000396000f3fe6080604052600436106100555760003560e01c80631c3101d31461005a5780633a6a4d2e146100835780638da5cb5b1461009a578063cc6cb19a146100c5578063d1bc76a114610102578063ed88c68e1461013f575b600080fd5b34801561006657600080fd5b50610081600480360381019061007c91906104f2565b610149565b005b34801561008f57600080fd5b5061009861023d565b005b3480156100a657600080fd5b506100af6103b2565b6040516100bc919061066e565b60405180910390f35b3480156100d157600080fd5b506100ec60048036038101906100e791906104f2565b6103d6565b6040516100f991906106e9565b60405180910390f35b34801561010e57600080fd5b506101296004803603810190610124919061051b565b6103ee565b604051610136919061066e565b60405180910390f35b61014761042d565b005b60008054906101000a900473ffffffffffffffffffffffffffffffffffffffff1673ffffffffffffffffffffffffffffffffffffffff163373ffffffffffffffffffffffffffffffffffffffff16146101d7576040517f08c379a00000000000000000000000000000000000000000000000000000000081526004016101ce906106c9565b60405180910390fd5b6002819080600181540180825580915050600190039060005260206000200160009091909190916101000a81548173ffffffffffffffffffffffffffffffffffffffff021916908373ffffffffffffffffffffffffffffffffffffffff16021790555050565b60008054906101000a900473ffffffffffffffffffffffffffffffffffffffff1673ffffffffffffffffffffffffffffffffffffffff163373ffffffffffffffffffffffffffffffffffffffff16146102cb576040517f08c379a00000000000000000000000000000000000000000000000000000000081526004016102c2906106a9565b60405180910390fd5b6000600280549050476102de919061076b565b905060005b6002805490508110156103ae576002818154811061032a577f4e487b7100000000000000000000000000000000000000000000000000000000600052603260045260246000fd5b9060005260206000200160009054906101000a900473ffffffffffffffffffffffffffffffffffffffff1673ffffffffffffffffffffffffffffffffffffffff166108fc839081150290604051600060405180830381858888f1935050505015801561039a573d6000803e3d6000fd5b5080806103a6906107d8565b9150506102e3565b5050565b60008054906101000a900473ffffffffffffffffffffffffffffffffffffffff1681565b60016020528060005260406000206000915090505481565b600281815481106103fe57600080fd5b906000526020600020016000915054906101000a900473ffffffffffffffffffffffffffffffffffffffff1681565b60003411610470576040517f08c379a000000000000000000000000000000000000000000000000000000000815260040161046790610689565b60405180910390fd5b34600160003373ffffffffffffffffffffffffffffffffffffffff1673ffffffffffffffffffffffffffffffffffffffff16815260200190815260200160002060008282546104bf9190610715565b92505081905550565b6000813590506104d78161087f565b92915050565b6000813590506104ec81610896565b92915050565b60006020828403121561050457600080fd5b6000610512848285016104c8565b91505092915050565b60006020828403121561052d57600080fd5b600061053b848285016104dd565b91505092915050565b61054d8161079c565b82525050565b6000610560601f83610704565b91507f446f6e6174696f6e206d7573742062652067726561746572207468616e2030006000830152602082019050919050565b60006105a0602383610704565b91507f4f6e6c7920746865206f776e65722063616e206469737472696275746520667560008301527f6e647300000000000000000000000000000000000000000000000000000000006020830152604082019050919050565b6000610606602183610704565b91507f4f6e6c7920746865206f776e65722063616e2061646420726563697069656e7460008301527f73000000000000000000000000000000000000000000000000000000000000006020830152604082019050919050565b610668816107ce565b82525050565b60006020820190506106836000830184610544565b92915050565b600060208201905081810360008301526106a281610553565b9050919050565b600060208201905081810360008301526106c281610593565b9050919050565b600060208201905081810360008301526106e2816105f9565b9050919050565b60006020820190506106fe600083018461065f565b92915050565b600082825260208201905092915050565b6000610720826107ce565b915061072b836107ce565b9250827fffffffffffffffffffffffffffffffffffffffffffffffffffffffffffffffff038211156107605761075f610821565b5b828201905092915050565b6000610776826107ce565b9150610781836107ce565b92508261079157610790610850565b5b828204905092915050565b60006107a7826107ae565b9050919050565b600073ffffffffffffffffffffffffffffffffffffffff82169050919050565b6000819050919050565b60006107e3826107ce565b91507fffffffffffffffffffffffffffffffffffffffffffffffffffffffffffffffff82141561081657610815610821565b5b600182019050919050565b7f4e487b7100000000000000000000000000000000000000000000000000000000600052601160045260246000fd5b7f4e487b7100000000000000000000000000000000000000000000000000000000600052601260045260246000fd5b6108888161079c565b811461089357600080fd5b50565b61089f816107ce565b81146108aa57600080fd5b5056fea2646970667358221220f30b31ec4b756f3fd179d31e45885f043d50442db5f82fff98d5f7f25865bfa864736f6c63430008000033",
  "immutableReferences": {},
  "source": "pragma solidity ^0.8.0;\r\n\r\ncontract ChristmasAid {\r\n    address public owner;\r\n    mapping(address => uint256) public donations;\r\n    address[] public recipients;\r\n\r\n    constructor() {\r\n        owner = msg.sender;\r\n    }\r\n\r\n    function donate() public payable {\r\n        require(msg.value > 0, \"Donation must be greater than 0\");\r\n        donations[msg.sender] += msg.value;\r\n    }\r\n\r\n    function addRecipient(address recipient) public {\r\n        require(msg.sender == owner, \"Only the owner can add recipients\");\r\n        recipients.push(recipient);\r\n    }\r\n\r\n    function distributeFunds() public {\r\n        require(msg.sender == owner, \"Only the owner can distribute funds\");\r\n        uint256 share = address(this).balance / recipients.length;\r\n        for (uint256 i = 0; i < recipients.length; i++) {\r\n            payable(recipients[i]).transfer(share);\r\n        }\r\n    }\r\n}\r\n",
  "sourcePath": "C:\\Users\\user\\Documents\\projectw3\\food_donation_platform\\contracts\\ChristmasAid.sol",
  "compiler": {
    "name": "solc",
    "version": "0.8.0+commit.c7dfd78e.Emscripten.clang"
  },
  "schemaVersion": "3.4.16",
  "updatedAt": "2024-12-04T23:16:26.739Z",
  "networkType": "ethereum",
  "devdoc": {
    "kind": "dev",
    "methods": {},
    "version": 1
  },
  "userdoc": {
    "kind": "user",
    "methods": {},
    "version": 1
  }
}